{
  "contractName": "DBToken",
  "abi": [
    {
      "inputs": [],
      "stateMutability": "nonpayable",
      "type": "constructor"
    },
    {
      "anonymous": false,
      "inputs": [
        {
          "indexed": true,
          "internalType": "address",
          "name": "_owner",
          "type": "address"
        },
        {
          "indexed": true,
          "internalType": "address",
          "name": "_spender",
          "type": "address"
        },
        {
          "indexed": false,
          "internalType": "uint256",
          "name": "_value",
          "type": "uint256"
        }
      ],
      "name": "Approval",
      "type": "event"
    },
    {
      "anonymous": false,
      "inputs": [
        {
          "indexed": true,
          "internalType": "address",
          "name": "_from",
          "type": "address"
        },
        {
          "indexed": true,
          "internalType": "address",
          "name": "_to",
          "type": "address"
        }
      ],
      "name": "MinterChanged",
      "type": "event"
    },
    {
      "anonymous": false,
      "inputs": [
        {
          "indexed": true,
          "internalType": "address",
          "name": "_from",
          "type": "address"
        },
        {
          "indexed": true,
          "internalType": "address",
          "name": "_to",
          "type": "address"
        },
        {
          "indexed": false,
          "internalType": "uint256",
          "name": "_value",
          "type": "uint256"
        }
      ],
      "name": "Transfer",
      "type": "event"
    },
    {
      "inputs": [
        {
          "internalType": "address",
          "name": "",
          "type": "address"
        },
        {
          "internalType": "address",
          "name": "",
          "type": "address"
        }
      ],
      "name": "allowance",
      "outputs": [
        {
          "internalType": "uint256",
          "name": "",
          "type": "uint256"
        }
      ],
      "stateMutability": "view",
      "type": "function",
      "constant": true
    },
    {
      "inputs": [
        {
          "internalType": "address",
          "name": "",
          "type": "address"
        }
      ],
      "name": "balanceOf",
      "outputs": [
        {
          "internalType": "uint256",
          "name": "",
          "type": "uint256"
        }
      ],
      "stateMutability": "view",
      "type": "function",
      "constant": true
    },
    {
      "inputs": [],
      "name": "minter",
      "outputs": [
        {
          "internalType": "address",
          "name": "",
          "type": "address"
        }
      ],
      "stateMutability": "view",
      "type": "function",
      "constant": true
    },
    {
      "inputs": [],
      "name": "name",
      "outputs": [
        {
          "internalType": "string",
          "name": "",
          "type": "string"
        }
      ],
      "stateMutability": "view",
      "type": "function",
      "constant": true
    },
    {
      "inputs": [],
      "name": "standard",
      "outputs": [
        {
          "internalType": "string",
          "name": "",
          "type": "string"
        }
      ],
      "stateMutability": "view",
      "type": "function",
      "constant": true
    },
    {
      "inputs": [],
      "name": "symbol",
      "outputs": [
        {
          "internalType": "string",
          "name": "",
          "type": "string"
        }
      ],
      "stateMutability": "view",
      "type": "function",
      "constant": true
    },
    {
      "inputs": [],
      "name": "totalSupply",
      "outputs": [
        {
          "internalType": "uint256",
          "name": "",
          "type": "uint256"
        }
      ],
      "stateMutability": "view",
      "type": "function",
      "constant": true
    },
    {
      "inputs": [
        {
          "internalType": "address",
          "name": "_to",
          "type": "address"
        },
        {
          "internalType": "uint256",
          "name": "_value",
          "type": "uint256"
        }
      ],
      "name": "transfer",
      "outputs": [
        {
          "internalType": "bool",
          "name": "success",
          "type": "bool"
        }
      ],
      "stateMutability": "nonpayable",
      "type": "function"
    },
    {
      "inputs": [
        {
          "internalType": "address",
          "name": "_spender",
          "type": "address"
        },
        {
          "internalType": "uint256",
          "name": "_value",
          "type": "uint256"
        }
      ],
      "name": "approve",
      "outputs": [
        {
          "internalType": "bool",
          "name": "success",
          "type": "bool"
        }
      ],
      "stateMutability": "nonpayable",
      "type": "function"
    },
    {
      "inputs": [
        {
          "internalType": "address",
          "name": "_from",
          "type": "address"
        },
        {
          "internalType": "address",
          "name": "_to",
          "type": "address"
        },
        {
          "internalType": "uint256",
          "name": "_value",
          "type": "uint256"
        }
      ],
      "name": "transferFrom",
      "outputs": [
        {
          "internalType": "bool",
          "name": "success",
          "type": "bool"
        }
      ],
      "stateMutability": "nonpayable",
      "type": "function"
    },
    {
      "inputs": [
        {
          "internalType": "address",
          "name": "dBank",
          "type": "address"
        }
      ],
      "name": "passMinterRole",
      "outputs": [
        {
          "internalType": "bool",
          "name": "",
          "type": "bool"
        }
      ],
      "stateMutability": "nonpayable",
      "type": "function"
    },
    {
      "inputs": [
        {
          "internalType": "address",
          "name": "account",
          "type": "address"
        },
        {
          "internalType": "uint256",
          "name": "amount",
          "type": "uint256"
        }
      ],
      "name": "mint",
      "outputs": [],
      "stateMutability": "nonpayable",
      "type": "function"
    }
  ],
  "bytecode": "0x60c0604052601860808190527f446563656e7472616c697a65642042616e6b20546f6b656e000000000000000060a090815261003e91600191906100d3565b506040805180820190915260038082526211109560ea1b6020909201918252610069916002916100d3565b5060408051808201909152601d8082527f446563656e7472616c697a65642042616e6b20546f6b656e2076312e3000000060209092019182526100ae916003916100d3565b503480156100bb57600080fd5b50600480546001600160a01b03191633179055610174565b828054600181600116156101000203166002900490600052602060002090601f016020900481019282610109576000855561014f565b82601f1061012257805160ff191683800117855561014f565b8280016001018555821561014f579182015b8281111561014f578251825591602001919060010190610134565b5061015b92915061015f565b5090565b5b8082111561015b5760008155600101610160565b610964806101836000396000f3fe608060405234801561001057600080fd5b50600436106100b45760003560e01c80635a3b7e42116100715780635a3b7e421461021857806370a082311461022057806395d89b4114610246578063a9059cbb1461024e578063d7fc5b151461027a578063dd62ed3e146102a0576100b4565b806306fdde03146100b95780630754617214610136578063095ea7b31461015a57806318160ddd1461019a57806323b872dd146101b457806340c10f19146101ea575b600080fd5b6100c16102ce565b6040805160208082528351818301528351919283929083019185019080838360005b838110156100fb5781810151838201526020016100e3565b50505050905090810190601f1680156101285780820380516001836020036101000a031916815260200191505b509250505060405180910390f35b61013e61035b565b604080516001600160a01b039092168252519081900360200190f35b6101866004803603604081101561017057600080fd5b506001600160a01b03813516906020013561036a565b604080519115158252519081900360200190f35b6101a26103d0565b60408051918252519081900360200190f35b610186600480360360608110156101ca57600080fd5b506001600160a01b038135811691602081013590911690604001356103d6565b6102166004803603604081101561020057600080fd5b506001600160a01b038135169060200135610519565b005b6100c161061d565b6101a26004803603602081101561023657600080fd5b50356001600160a01b0316610678565b6100c161068a565b6101866004803603604081101561026457600080fd5b506001600160a01b0381351690602001356106e2565b6101866004803603602081101561029057600080fd5b50356001600160a01b031661079e565b6101a2600480360360408110156102b657600080fd5b506001600160a01b038135811691602001351661083b565b60018054604080516020600284861615610100026000190190941693909304601f810184900484028201840190925281815292918301828280156103535780601f1061032857610100808354040283529160200191610353565b820191906000526020600020905b81548152906001019060200180831161033657829003601f168201915b505050505081565b6004546001600160a01b031681565b3360008181526006602090815260408083206001600160a01b038716808552908352818420869055815186815291519394909390927f8c5be1e5ebec7d5bd14f71427d1e84f3dd0314c0f7b2291e5b200ac8c7c3b925928290030190a350600192915050565b60005481565b6001600160a01b03831660009081526005602052604081205482111561042d5760405162461bcd60e51b815260040180806020018281038252602d81526020018061087e602d913960400191505060405180910390fd5b6001600160a01b038416600090815260066020908152604080832033845290915290205482111561048f5760405162461bcd60e51b815260040180806020018281038252602f815260200180610900602f913960400191505060405180910390fd5b6001600160a01b0380851660008181526005602090815260408083208054889003905593871680835284832080548801905583835260068252848320338452825291849020805487900390558351868152935191937fddf252ad1be2c89b69c2b068fc378daa952ba7f163c4a11628f55a4df523b3ef929081900390910190a35060019392505050565b6004546001600160a01b031633146105625760405162461bcd60e51b815260040180806020018281038252602c8152602001806108ab602c913960400191505060405180910390fd5b6001600160a01b0382166105bd576040805162461bcd60e51b815260206004820152601760248201527f45524332303a206d696e7420746f20746865207a65726f000000000000000000604482015290519081900360640190fd5b60008054820181556001600160a01b038316808252600560209081526040808420805486019055805185815290519293927fddf252ad1be2c89b69c2b068fc378daa952ba7f163c4a11628f55a4df523b3ef929181900390910190a35050565b6003805460408051602060026001851615610100026000190190941693909304601f810184900484028201840190925281815292918301828280156103535780601f1061032857610100808354040283529160200191610353565b60056020526000908152604090205481565b6002805460408051602060018416156101000260001901909316849004601f810184900484028201840190925281815292918301828280156103535780601f1061032857610100808354040283529160200191610353565b336000908152600560205260408120548211156107305760405162461bcd60e51b81526004018080602001828103825260258152602001806108596025913960400191505060405180910390fd5b336000818152600560209081526040808320805487900390556001600160a01b03871680845292819020805487019055805186815290519293927fddf252ad1be2c89b69c2b068fc378daa952ba7f163c4a11628f55a4df523b3ef929181900390910190a350600192915050565b6004546000906001600160a01b031633146107ea5760405162461bcd60e51b81526004018080602001828103825260298152602001806108d76029913960400191505060405180910390fd5b600480546001600160a01b0319166001600160a01b03841690811790915560405133907f3b0007eb941cf645526cbb3a4fdaecda9d28ce4843167d9263b536a1f1edc0f690600090a3506001919050565b60066020908152600092835260408084209091529082529020548156fe4572726f722c206e6f7420656e6f75676820746f6b656e7320746f207472616e736665722e4572726f722c207468657265206973206e6f20656e6f75676820616d6f756e7420746f207472616e736665722e4572726f722c206d73672e73656e64657220646f6573206e6f742068617665206d696e74657220726f6c652e4572726f722c206f6e6c79206f776e65722063616e206368616e6765206d696e74657220726f6c652e4572726f722c20616c6c6f77616e6365206973206e6f742062696720656e6f75676820666f72207472616e73666572a2646970667358221220c8014b79190dc6df888d4678f83eee69662dfa355ff572658f07de55efb0d70264736f6c63430007060033",
  "immutableReferences": {},
  "source": "// SPDX-License-Identifier: MIT\r\npragma solidity >=0.6.0 <0.8.0;\r\n\r\ncontract DBToken {\r\n\r\n\tuint256 public totalSupply; \r\n\tstring public name = \"Decentralized Bank Token\";\r\n\tstring public symbol = \"DBT\";\r\n\tstring public standard = \"Decentralized Bank Token v1.0\"; \r\n\taddress public minter;\r\n\r\n\tmapping(address => uint256) public balanceOf;\r\n\tmapping(address => mapping(address => uint256)) public allowance;\r\n\r\n\tevent Transfer(address indexed _from, address indexed _to, uint256 _value);\r\n\tevent Approval(address indexed _owner, address indexed _spender, uint256 _value);\r\n\tevent MinterChanged(address indexed _from, address indexed _to);\r\n\r\n\tconstructor() {\r\n\t\t minter = msg.sender; \r\n\t}\r\n\r\n\tfunction transfer(address _to, uint256 _value) public returns (bool success){\r\n\t\trequire(balanceOf[msg.sender] >= _value, 'Error, not enough tokens to transfer.');\r\n\t\tbalanceOf[msg.sender] -= _value;\r\n\t\tbalanceOf[_to] += _value;\t\r\n\t\temit Transfer(msg.sender, _to, _value);\r\n\t\treturn true;\r\n\t}\r\n\r\n\tfunction approve(address _spender, uint256 _value) public returns (bool success){\r\n\t\tallowance[msg.sender][_spender] = _value;\r\n\t\temit Approval(msg.sender, _spender, _value);\r\n\t\treturn true;\r\n\t}\r\n\r\n\tfunction transferFrom(address _from, address _to, uint256 _value) public returns (bool success){\r\n\t\trequire(balanceOf[_from] >= _value, 'Error, there is no enough amount to transfer.');\r\n\t\trequire(allowance[_from][msg.sender] >= _value, 'Error, allowance is not big enough for transfer'); \r\n\t\tbalanceOf[_from] -= _value;\r\n\t\tbalanceOf[_to] += _value;\r\n\t\tallowance[_from][msg.sender] -= _value;\r\n\t\temit Transfer(_from, _to, _value);\r\n\t\treturn true;\r\n\t}\r\n\r\n\t// bank will be the minter\r\n\tfunction passMinterRole(address dBank) public returns (bool){\r\n\t\trequire(msg.sender == minter, 'Error, only owner can change minter role.');\r\n\t\tminter = dBank;\r\n\t\temit MinterChanged(msg.sender, dBank);\r\n\t\treturn true;\r\n\t}\r\n\r\n\tfunction mint(address account, uint256 amount) public {\r\n\t\t//check if msg.sender has minter role\r\n\t\trequire(msg.sender == minter, 'Error, msg.sender does not have minter role.');\r\n\t\trequire(account != address(0), 'ERC20: mint to the zero');\r\n\t\ttotalSupply += amount;\r\n\t\tbalanceOf[account] += amount;\r\n\t\temit Transfer(address(0), account, amount);\r\n\t}\r\n\r\n}\r\n\r\n",
  "sourcePath": "D:\\Master\\MasterRad\\decentralized-bank\\src\\contracts\\DBToken.sol",
  "compiler": {
    "name": "solc",
    "version": "0.7.6+commit.7338295f.Emscripten.clang"
  },
  "schemaVersion": "3.4.3",
  "updatedAt": "2022-01-17T00:02:36.556Z",
  "networkType": "ethereum",
  "devdoc": {
    "kind": "dev",
    "methods": {},
    "version": 1
  },
  "userdoc": {
    "kind": "user",
    "methods": {},
    "version": 1
  }
}