{
  "contractName": "DBToken",
  "abi": [
    {
      "inputs": [],
      "stateMutability": "nonpayable",
      "type": "constructor"
    },
    {
      "anonymous": false,
      "inputs": [
        {
          "indexed": true,
          "internalType": "address",
          "name": "_owner",
          "type": "address"
        },
        {
          "indexed": true,
          "internalType": "address",
          "name": "_spender",
          "type": "address"
        },
        {
          "indexed": false,
          "internalType": "uint256",
          "name": "_value",
          "type": "uint256"
        }
      ],
      "name": "Approval",
      "type": "event"
    },
    {
      "anonymous": false,
      "inputs": [
        {
          "indexed": true,
          "internalType": "address",
          "name": "_from",
          "type": "address"
        },
        {
          "indexed": true,
          "internalType": "address",
          "name": "_to",
          "type": "address"
        }
      ],
      "name": "MinterChanged",
      "type": "event"
    },
    {
      "anonymous": false,
      "inputs": [
        {
          "indexed": true,
          "internalType": "address",
          "name": "_from",
          "type": "address"
        },
        {
          "indexed": true,
          "internalType": "address",
          "name": "_to",
          "type": "address"
        },
        {
          "indexed": false,
          "internalType": "uint256",
          "name": "_value",
          "type": "uint256"
        }
      ],
      "name": "Transfer",
      "type": "event"
    },
    {
      "inputs": [
        {
          "internalType": "address",
          "name": "",
          "type": "address"
        },
        {
          "internalType": "address",
          "name": "",
          "type": "address"
        }
      ],
      "name": "allowance",
      "outputs": [
        {
          "internalType": "uint256",
          "name": "",
          "type": "uint256"
        }
      ],
      "stateMutability": "view",
      "type": "function",
      "constant": true
    },
    {
      "inputs": [
        {
          "internalType": "address",
          "name": "",
          "type": "address"
        }
      ],
      "name": "balanceOf",
      "outputs": [
        {
          "internalType": "uint256",
          "name": "",
          "type": "uint256"
        }
      ],
      "stateMutability": "view",
      "type": "function",
      "constant": true
    },
    {
      "inputs": [],
      "name": "decimals",
      "outputs": [
        {
          "internalType": "uint8",
          "name": "",
          "type": "uint8"
        }
      ],
      "stateMutability": "view",
      "type": "function",
      "constant": true
    },
    {
      "inputs": [],
      "name": "minter",
      "outputs": [
        {
          "internalType": "address",
          "name": "",
          "type": "address"
        }
      ],
      "stateMutability": "view",
      "type": "function",
      "constant": true
    },
    {
      "inputs": [],
      "name": "name",
      "outputs": [
        {
          "internalType": "string",
          "name": "",
          "type": "string"
        }
      ],
      "stateMutability": "view",
      "type": "function",
      "constant": true
    },
    {
      "inputs": [],
      "name": "standard",
      "outputs": [
        {
          "internalType": "string",
          "name": "",
          "type": "string"
        }
      ],
      "stateMutability": "view",
      "type": "function",
      "constant": true
    },
    {
      "inputs": [],
      "name": "symbol",
      "outputs": [
        {
          "internalType": "string",
          "name": "",
          "type": "string"
        }
      ],
      "stateMutability": "view",
      "type": "function",
      "constant": true
    },
    {
      "inputs": [],
      "name": "totalSupply",
      "outputs": [
        {
          "internalType": "uint256",
          "name": "",
          "type": "uint256"
        }
      ],
      "stateMutability": "view",
      "type": "function",
      "constant": true
    },
    {
      "inputs": [
        {
          "internalType": "address",
          "name": "_to",
          "type": "address"
        },
        {
          "internalType": "uint256",
          "name": "_value",
          "type": "uint256"
        }
      ],
      "name": "transfer",
      "outputs": [
        {
          "internalType": "bool",
          "name": "success",
          "type": "bool"
        }
      ],
      "stateMutability": "nonpayable",
      "type": "function"
    },
    {
      "inputs": [
        {
          "internalType": "address",
          "name": "_spender",
          "type": "address"
        },
        {
          "internalType": "uint256",
          "name": "_value",
          "type": "uint256"
        }
      ],
      "name": "approve",
      "outputs": [
        {
          "internalType": "bool",
          "name": "success",
          "type": "bool"
        }
      ],
      "stateMutability": "nonpayable",
      "type": "function"
    },
    {
      "inputs": [
        {
          "internalType": "address",
          "name": "_from",
          "type": "address"
        },
        {
          "internalType": "address",
          "name": "_to",
          "type": "address"
        },
        {
          "internalType": "uint256",
          "name": "_value",
          "type": "uint256"
        }
      ],
      "name": "transferFrom",
      "outputs": [
        {
          "internalType": "bool",
          "name": "success",
          "type": "bool"
        }
      ],
      "stateMutability": "nonpayable",
      "type": "function"
    },
    {
      "inputs": [
        {
          "internalType": "address",
          "name": "dBank",
          "type": "address"
        }
      ],
      "name": "passMinterRole",
      "outputs": [
        {
          "internalType": "bool",
          "name": "",
          "type": "bool"
        }
      ],
      "stateMutability": "nonpayable",
      "type": "function"
    },
    {
      "inputs": [
        {
          "internalType": "address",
          "name": "account",
          "type": "address"
        },
        {
          "internalType": "uint256",
          "name": "amount",
          "type": "uint256"
        }
      ],
      "name": "mint",
      "outputs": [],
      "stateMutability": "nonpayable",
      "type": "function"
    }
  ],
  "bytecode": "0x60c0604052601860808190527f446563656e7472616c697a65642042616e6b20546f6b656e000000000000000060a090815261003e91600191906100e0565b506040805180820190915260038082526211109560ea1b6020909201918252610069916002916100e0565b506003805460ff1916601217905560408051808201909152601d8082527f446563656e7472616c697a65642042616e6b20546f6b656e2076312e3000000060209092019182526100bb916004916100e0565b503480156100c857600080fd5b50600580546001600160a01b03191633179055610181565b828054600181600116156101000203166002900490600052602060002090601f016020900481019282610116576000855561015c565b82601f1061012f57805160ff191683800117855561015c565b8280016001018555821561015c579182015b8281111561015c578251825591602001919060010190610141565b5061016892915061016c565b5090565b5b80821115610168576000815560010161016d565b6109a6806101906000396000f3fe608060405234801561001057600080fd5b50600436106100cf5760003560e01c806340c10f191161008c57806395d89b411161006657806395d89b411461027f578063a9059cbb14610287578063d7fc5b15146102b3578063dd62ed3e146102d9576100cf565b806340c10f19146102235780635a3b7e421461025157806370a0823114610259576100cf565b806306fdde03146100d45780630754617214610151578063095ea7b31461017557806318160ddd146101b557806323b872dd146101cf578063313ce56714610205575b600080fd5b6100dc610307565b6040805160208082528351818301528351919283929083019185019080838360005b838110156101165781810151838201526020016100fe565b50505050905090810190601f1680156101435780820380516001836020036101000a031916815260200191505b509250505060405180910390f35b610159610394565b604080516001600160a01b039092168252519081900360200190f35b6101a16004803603604081101561018b57600080fd5b506001600160a01b0381351690602001356103a3565b604080519115158252519081900360200190f35b6101bd610409565b60408051918252519081900360200190f35b6101a1600480360360608110156101e557600080fd5b506001600160a01b0381358116916020810135909116906040013561040f565b61020d610552565b6040805160ff9092168252519081900360200190f35b61024f6004803603604081101561023957600080fd5b506001600160a01b03813516906020013561055b565b005b6100dc61065f565b6101bd6004803603602081101561026f57600080fd5b50356001600160a01b03166106ba565b6100dc6106cc565b6101a16004803603604081101561029d57600080fd5b506001600160a01b038135169060200135610724565b6101a1600480360360208110156102c957600080fd5b50356001600160a01b03166107e0565b6101bd600480360360408110156102ef57600080fd5b506001600160a01b038135811691602001351661087d565b60018054604080516020600284861615610100026000190190941693909304601f8101849004840282018401909252818152929183018282801561038c5780601f106103615761010080835404028352916020019161038c565b820191906000526020600020905b81548152906001019060200180831161036f57829003601f168201915b505050505081565b6005546001600160a01b031681565b3360008181526007602090815260408083206001600160a01b038716808552908352818420869055815186815291519394909390927f8c5be1e5ebec7d5bd14f71427d1e84f3dd0314c0f7b2291e5b200ac8c7c3b925928290030190a350600192915050565b60005481565b6001600160a01b0383166000908152600660205260408120548211156104665760405162461bcd60e51b815260040180806020018281038252602d8152602001806108c0602d913960400191505060405180910390fd5b6001600160a01b03841660009081526007602090815260408083203384529091529020548211156104c85760405162461bcd60e51b815260040180806020018281038252602f815260200180610942602f913960400191505060405180910390fd5b6001600160a01b0380851660008181526006602090815260408083208054889003905593871680835284832080548801905583835260078252848320338452825291849020805487900390558351868152935191937fddf252ad1be2c89b69c2b068fc378daa952ba7f163c4a11628f55a4df523b3ef929081900390910190a35060019392505050565b60035460ff1681565b6005546001600160a01b031633146105a45760405162461bcd60e51b815260040180806020018281038252602c8152602001806108ed602c913960400191505060405180910390fd5b6001600160a01b0382166105ff576040805162461bcd60e51b815260206004820152601760248201527f45524332303a206d696e7420746f20746865207a65726f000000000000000000604482015290519081900360640190fd5b60008054820181556001600160a01b038316808252600660209081526040808420805486019055805185815290519293927fddf252ad1be2c89b69c2b068fc378daa952ba7f163c4a11628f55a4df523b3ef929181900390910190a35050565b6004805460408051602060026001851615610100026000190190941693909304601f8101849004840282018401909252818152929183018282801561038c5780601f106103615761010080835404028352916020019161038c565b60066020526000908152604090205481565b6002805460408051602060018416156101000260001901909316849004601f8101849004840282018401909252818152929183018282801561038c5780601f106103615761010080835404028352916020019161038c565b336000908152600660205260408120548211156107725760405162461bcd60e51b815260040180806020018281038252602581526020018061089b6025913960400191505060405180910390fd5b336000818152600660209081526040808320805487900390556001600160a01b03871680845292819020805487019055805186815290519293927fddf252ad1be2c89b69c2b068fc378daa952ba7f163c4a11628f55a4df523b3ef929181900390910190a350600192915050565b6005546000906001600160a01b0316331461082c5760405162461bcd60e51b81526004018080602001828103825260298152602001806109196029913960400191505060405180910390fd5b600580546001600160a01b0319166001600160a01b03841690811790915560405133907f3b0007eb941cf645526cbb3a4fdaecda9d28ce4843167d9263b536a1f1edc0f690600090a3506001919050565b60076020908152600092835260408084209091529082529020548156fe4572726f722c206e6f7420656e6f75676820746f6b656e7320746f207472616e736665722e4572726f722c207468657265206973206e6f20656e6f75676820616d6f756e7420746f207472616e736665722e4572726f722c206d73672e73656e64657220646f6573206e6f742068617665206d696e74657220726f6c652e4572726f722c206f6e6c79206f776e65722063616e206368616e6765206d696e74657220726f6c652e4572726f722c20616c6c6f77616e6365206973206e6f742062696720656e6f75676820666f72207472616e73666572a2646970667358221220cbd2ad54bf4b4c9947b7299cfd5932b651e89a59d324722b18e2100f6a7d54e964736f6c63430007060033",
  "immutableReferences": {},
  "source": "// SPDX-License-Identifier: MIT\r\npragma solidity >=0.6.0 <0.8.0;\r\n\r\ncontract DBToken {\r\n\r\n\tuint256 public totalSupply; \r\n\tstring public name = \"Decentralized Bank Token\";\r\n\tstring public symbol = \"DBT\";\r\n\tuint8 public decimals = 18;\r\n\tstring public standard = \"Decentralized Bank Token v1.0\"; \r\n\taddress public minter;\r\n\r\n\tmapping(address => uint256) public balanceOf;\r\n\tmapping(address => mapping(address => uint256)) public allowance;\r\n\r\n\tevent Transfer(address indexed _from, address indexed _to, uint256 _value);\r\n\tevent Approval(address indexed _owner, address indexed _spender, uint256 _value);\r\n\tevent MinterChanged(address indexed _from, address indexed _to);\r\n\r\n\tconstructor() {\r\n\t\t minter = msg.sender; \r\n\t}\r\n\r\n\tfunction transfer(address _to, uint256 _value) public returns (bool success){\r\n\t\trequire(balanceOf[msg.sender] >= _value, 'Error, not enough tokens to transfer.');\r\n\t\tbalanceOf[msg.sender] -= _value;\r\n\t\tbalanceOf[_to] += _value;\t\r\n\t\temit Transfer(msg.sender, _to, _value);\r\n\t\treturn true;\r\n\t}\r\n\r\n\tfunction approve(address _spender, uint256 _value) public returns (bool success){\r\n\t\tallowance[msg.sender][_spender] = _value;\r\n\t\temit Approval(msg.sender, _spender, _value);\r\n\t\treturn true;\r\n\t}\r\n\r\n\tfunction transferFrom(address _from, address _to, uint256 _value) public returns (bool success){\r\n\t\trequire(balanceOf[_from] >= _value, 'Error, there is no enough amount to transfer.');\r\n\t\trequire(allowance[_from][msg.sender] >= _value, 'Error, allowance is not big enough for transfer'); \r\n\t\tbalanceOf[_from] -= _value;\r\n\t\tbalanceOf[_to] += _value;\r\n\t\tallowance[_from][msg.sender] -= _value;\r\n\t\temit Transfer(_from, _to, _value);\r\n\t\treturn true;\r\n\t}\r\n\r\n\t// bank will be the minter\r\n\tfunction passMinterRole(address dBank) public returns (bool){\r\n\t\trequire(msg.sender == minter, 'Error, only owner can change minter role.');\r\n\t\tminter = dBank;\r\n\t\temit MinterChanged(msg.sender, dBank);\r\n\t\treturn true;\r\n\t}\r\n\r\n\tfunction mint(address account, uint256 amount) public {\r\n\t\t//check if msg.sender has minter role\r\n\t\trequire(msg.sender == minter, 'Error, msg.sender does not have minter role.');\r\n\t\trequire(account != address(0), 'ERC20: mint to the zero');\r\n\t\ttotalSupply += amount;\r\n\t\tbalanceOf[account] += amount;\r\n\t\temit Transfer(address(0), account, amount);\r\n\t}\r\n\r\n}\r\n\r\n",
  "sourcePath": "D:\\Master\\MasterRad\\decentralized-bank\\src\\contracts\\DBToken.sol",
  "compiler": {
    "name": "solc",
    "version": "0.7.6+commit.7338295f.Emscripten.clang"
  },
  "schemaVersion": "3.4.3",
  "updatedAt": "2022-01-17T21:21:51.258Z",
  "networkType": "ethereum",
  "devdoc": {
    "kind": "dev",
    "methods": {},
    "version": 1
  },
  "userdoc": {
    "kind": "user",
    "methods": {},
    "version": 1
  }
}