{
  "contractName": "DBToken",
  "abi": [
    {
      "inputs": [],
      "stateMutability": "nonpayable",
      "type": "constructor"
    },
    {
      "anonymous": false,
      "inputs": [
        {
          "indexed": true,
          "internalType": "address",
          "name": "_owner",
          "type": "address"
        },
        {
          "indexed": true,
          "internalType": "address",
          "name": "_spender",
          "type": "address"
        },
        {
          "indexed": false,
          "internalType": "uint256",
          "name": "_value",
          "type": "uint256"
        }
      ],
      "name": "Approval",
      "type": "event"
    },
    {
      "anonymous": false,
      "inputs": [
        {
          "indexed": true,
          "internalType": "address",
          "name": "_from",
          "type": "address"
        },
        {
          "indexed": true,
          "internalType": "address",
          "name": "_to",
          "type": "address"
        }
      ],
      "name": "MinterChanged",
      "type": "event"
    },
    {
      "anonymous": false,
      "inputs": [
        {
          "indexed": true,
          "internalType": "address",
          "name": "_from",
          "type": "address"
        },
        {
          "indexed": true,
          "internalType": "address",
          "name": "_to",
          "type": "address"
        },
        {
          "indexed": false,
          "internalType": "uint256",
          "name": "_value",
          "type": "uint256"
        }
      ],
      "name": "Transfer",
      "type": "event"
    },
    {
      "inputs": [
        {
          "internalType": "address",
          "name": "",
          "type": "address"
        },
        {
          "internalType": "address",
          "name": "",
          "type": "address"
        }
      ],
      "name": "allowance",
      "outputs": [
        {
          "internalType": "uint256",
          "name": "",
          "type": "uint256"
        }
      ],
      "stateMutability": "view",
      "type": "function",
      "constant": true
    },
    {
      "inputs": [
        {
          "internalType": "address",
          "name": "",
          "type": "address"
        }
      ],
      "name": "balanceOf",
      "outputs": [
        {
          "internalType": "uint256",
          "name": "",
          "type": "uint256"
        }
      ],
      "stateMutability": "view",
      "type": "function",
      "constant": true
    },
    {
      "inputs": [],
      "name": "decimals",
      "outputs": [
        {
          "internalType": "uint8",
          "name": "",
          "type": "uint8"
        }
      ],
      "stateMutability": "view",
      "type": "function",
      "constant": true
    },
    {
      "inputs": [],
      "name": "minter",
      "outputs": [
        {
          "internalType": "address",
          "name": "",
          "type": "address"
        }
      ],
      "stateMutability": "view",
      "type": "function",
      "constant": true
    },
    {
      "inputs": [],
      "name": "name",
      "outputs": [
        {
          "internalType": "string",
          "name": "",
          "type": "string"
        }
      ],
      "stateMutability": "view",
      "type": "function",
      "constant": true
    },
    {
      "inputs": [],
      "name": "standard",
      "outputs": [
        {
          "internalType": "string",
          "name": "",
          "type": "string"
        }
      ],
      "stateMutability": "view",
      "type": "function",
      "constant": true
    },
    {
      "inputs": [],
      "name": "symbol",
      "outputs": [
        {
          "internalType": "string",
          "name": "",
          "type": "string"
        }
      ],
      "stateMutability": "view",
      "type": "function",
      "constant": true
    },
    {
      "inputs": [],
      "name": "totalSupply",
      "outputs": [
        {
          "internalType": "uint256",
          "name": "",
          "type": "uint256"
        }
      ],
      "stateMutability": "view",
      "type": "function",
      "constant": true
    },
    {
      "inputs": [
        {
          "internalType": "address",
          "name": "_to",
          "type": "address"
        },
        {
          "internalType": "uint256",
          "name": "_value",
          "type": "uint256"
        }
      ],
      "name": "transfer",
      "outputs": [
        {
          "internalType": "bool",
          "name": "success",
          "type": "bool"
        }
      ],
      "stateMutability": "nonpayable",
      "type": "function"
    },
    {
      "inputs": [
        {
          "internalType": "address",
          "name": "_spender",
          "type": "address"
        },
        {
          "internalType": "uint256",
          "name": "_value",
          "type": "uint256"
        }
      ],
      "name": "approve",
      "outputs": [
        {
          "internalType": "bool",
          "name": "success",
          "type": "bool"
        }
      ],
      "stateMutability": "nonpayable",
      "type": "function"
    },
    {
      "inputs": [
        {
          "internalType": "address",
          "name": "_from",
          "type": "address"
        },
        {
          "internalType": "address",
          "name": "_to",
          "type": "address"
        },
        {
          "internalType": "uint256",
          "name": "_value",
          "type": "uint256"
        }
      ],
      "name": "transferFrom",
      "outputs": [
        {
          "internalType": "bool",
          "name": "success",
          "type": "bool"
        }
      ],
      "stateMutability": "nonpayable",
      "type": "function"
    },
    {
      "inputs": [
        {
          "internalType": "address",
          "name": "dBank",
          "type": "address"
        }
      ],
      "name": "passMinterRole",
      "outputs": [
        {
          "internalType": "bool",
          "name": "",
          "type": "bool"
        }
      ],
      "stateMutability": "nonpayable",
      "type": "function"
    },
    {
      "inputs": [
        {
          "internalType": "address",
          "name": "account",
          "type": "address"
        },
        {
          "internalType": "uint256",
          "name": "amount",
          "type": "uint256"
        }
      ],
      "name": "mint",
      "outputs": [],
      "stateMutability": "nonpayable",
      "type": "function"
    }
  ],
  "bytecode": "0x60c0604052601860808190527f446563656e7472616c697a65642042616e6b20546f6b656e000000000000000060a090815261003e91600191906100e0565b506040805180820190915260038082526211109560ea1b6020909201918252610069916002916100e0565b506003805460ff1916601217905560408051808201909152601d8082527f446563656e7472616c697a65642042616e6b20546f6b656e2076312e3000000060209092019182526100bb916004916100e0565b503480156100c857600080fd5b50600580546001600160a01b031916331790556101b3565b8280546100ec90610179565b90600052602060002090601f01602090048101928261010e5760008555610154565b82601f1061012757805160ff1916838001178555610154565b82800160010185558215610154579182015b82811115610154578251825591602001919060010190610139565b50610160929150610164565b5090565b5b808211156101605760008155600101610165565b600181811c9082168061018d57607f821691505b6020821081036101ad57634e487b7160e01b600052602260045260246000fd5b50919050565b610a15806101c26000396000f3fe608060405234801561001057600080fd5b50600436106100cf5760003560e01c806340c10f191161008c57806395d89b411161006657806395d89b41146101c6578063a9059cbb146101ce578063d7fc5b15146101e1578063dd62ed3e146101f457600080fd5b806340c10f19146101895780635a3b7e421461019e57806370a08231146101a657600080fd5b806306fdde03146100d457806307546172146100f2578063095ea7b31461011d57806318160ddd1461014057806323b872dd14610157578063313ce5671461016a575b600080fd5b6100dc61021f565b6040516100e99190610834565b60405180910390f35b600554610105906001600160a01b031681565b6040516001600160a01b0390911681526020016100e9565b61013061012b3660046108a5565b6102ad565b60405190151581526020016100e9565b61014960005481565b6040519081526020016100e9565b6101306101653660046108cf565b610319565b6003546101779060ff1681565b60405160ff90911681526020016100e9565b61019c6101973660046108a5565b610512565b005b6100dc61065f565b6101496101b436600461090b565b60066020526000908152604090205481565b6100dc61066c565b6101306101dc3660046108a5565b610679565b6101306101ef36600461090b565b610774565b61014961020236600461092d565b600760209081526000928352604080842090915290825290205481565b6001805461022c90610960565b80601f016020809104026020016040519081016040528092919081815260200182805461025890610960565b80156102a55780601f1061027a576101008083540402835291602001916102a5565b820191906000526020600020905b81548152906001019060200180831161028857829003601f168201915b505050505081565b3360008181526007602090815260408083206001600160a01b038716808552925280832085905551919290917f8c5be1e5ebec7d5bd14f71427d1e84f3dd0314c0f7b2291e5b200ac8c7c3b925906103089086815260200190565b60405180910390a350600192915050565b6001600160a01b03831660009081526006602052604081205482111561039c5760405162461bcd60e51b815260206004820152602d60248201527f4572726f722c207468657265206973206e6f20656e6f75676820616d6f756e7460448201526c103a37903a3930b739b332b91760991b60648201526084015b60405180910390fd5b6001600160a01b03841660009081526007602090815260408083203384529091529020548211156104275760405162461bcd60e51b815260206004820152602f60248201527f4572726f722c20616c6c6f77616e6365206973206e6f742062696720656e6f7560448201526e33b4103337b9103a3930b739b332b960891b6064820152608401610393565b6001600160a01b0384166000908152600660205260408120805484929061044f9084906109b0565b90915550506001600160a01b0383166000908152600660205260408120805484929061047c9084906109c7565b90915550506001600160a01b0384166000908152600760209081526040808320338452909152812080548492906104b49084906109b0565b92505081905550826001600160a01b0316846001600160a01b03167fddf252ad1be2c89b69c2b068fc378daa952ba7f163c4a11628f55a4df523b3ef8460405161050091815260200190565b60405180910390a35060019392505050565b6005546001600160a01b031633146105815760405162461bcd60e51b815260206004820152602c60248201527f4572726f722c206d73672e73656e64657220646f6573206e6f7420686176652060448201526b36b4b73a32b9103937b6329760a11b6064820152608401610393565b6001600160a01b0382166105d75760405162461bcd60e51b815260206004820152601760248201527f45524332303a206d696e7420746f20746865207a65726f0000000000000000006044820152606401610393565b806000808282546105e891906109c7565b90915550506001600160a01b038216600090815260066020526040812080548392906106159084906109c7565b90915550506040518181526001600160a01b038316906000907fddf252ad1be2c89b69c2b068fc378daa952ba7f163c4a11628f55a4df523b3ef9060200160405180910390a35050565b6004805461022c90610960565b6002805461022c90610960565b336000908152600660205260408120548211156106e65760405162461bcd60e51b815260206004820152602560248201527f4572726f722c206e6f7420656e6f75676820746f6b656e7320746f207472616e60448201526439b332b91760d91b6064820152608401610393565b33600090815260066020526040812080548492906107059084906109b0565b90915550506001600160a01b038316600090815260066020526040812080548492906107329084906109c7565b90915550506040518281526001600160a01b0384169033907fddf252ad1be2c89b69c2b068fc378daa952ba7f163c4a11628f55a4df523b3ef90602001610308565b6005546000906001600160a01b031633146107e35760405162461bcd60e51b815260206004820152602960248201527f4572726f722c206f6e6c79206f776e65722063616e206368616e6765206d696e6044820152683a32b9103937b6329760b91b6064820152608401610393565b600580546001600160a01b0319166001600160a01b03841690811790915560405133907f3b0007eb941cf645526cbb3a4fdaecda9d28ce4843167d9263b536a1f1edc0f690600090a3506001919050565b600060208083528351808285015260005b8181101561086157858101830151858201604001528201610845565b81811115610873576000604083870101525b50601f01601f1916929092016040019392505050565b80356001600160a01b03811681146108a057600080fd5b919050565b600080604083850312156108b857600080fd5b6108c183610889565b946020939093013593505050565b6000806000606084860312156108e457600080fd5b6108ed84610889565b92506108fb60208501610889565b9150604084013590509250925092565b60006020828403121561091d57600080fd5b61092682610889565b9392505050565b6000806040838503121561094057600080fd5b61094983610889565b915061095760208401610889565b90509250929050565b600181811c9082168061097457607f821691505b60208210810361099457634e487b7160e01b600052602260045260246000fd5b50919050565b634e487b7160e01b600052601160045260246000fd5b6000828210156109c2576109c261099a565b500390565b600082198211156109da576109da61099a565b50019056fea2646970667358221220ac493a799b0f88c8cab6ec9dbacdd9022cdf945f6db8f80f57150b2612b3416c64736f6c634300080d0033",
  "immutableReferences": {},
  "source": "// SPDX-License-Identifier: MIT\r\npragma solidity ^0.8.13;\r\n\r\ncontract DBToken {\r\n    uint256 public totalSupply;\r\n    string public name = \"Decentralized Bank Token\";\r\n    string public symbol = \"DBT\";\r\n    uint8 public decimals = 18;\r\n    string public standard = \"Decentralized Bank Token v1.0\";\r\n    address public minter;\r\n\r\n    mapping(address => uint256) public balanceOf;\r\n    mapping(address => mapping(address => uint256)) public allowance;\r\n\r\n    event Transfer(address indexed _from, address indexed _to, uint256 _value);\r\n    event Approval(\r\n        address indexed _owner,\r\n        address indexed _spender,\r\n        uint256 _value\r\n    );\r\n    event MinterChanged(address indexed _from, address indexed _to);\r\n\r\n    constructor() {\r\n        minter = msg.sender;\r\n    }\r\n\r\n    function transfer(address _to, uint256 _value)\r\n        public\r\n        returns (bool success)\r\n    {\r\n        require(\r\n            balanceOf[msg.sender] >= _value,\r\n            \"Error, not enough tokens to transfer.\"\r\n        );\r\n        balanceOf[msg.sender] -= _value;\r\n        balanceOf[_to] += _value;\r\n        emit Transfer(msg.sender, _to, _value);\r\n        return true;\r\n    }\r\n\r\n    function approve(address _spender, uint256 _value)\r\n        public\r\n        returns (bool success)\r\n    {\r\n        allowance[msg.sender][_spender] = _value;\r\n        emit Approval(msg.sender, _spender, _value);\r\n        return true;\r\n    }\r\n\r\n    function transferFrom(\r\n        address _from,\r\n        address _to,\r\n        uint256 _value\r\n    ) public returns (bool success) {\r\n        require(\r\n            balanceOf[_from] >= _value,\r\n            \"Error, there is no enough amount to transfer.\"\r\n        );\r\n        require(\r\n            allowance[_from][msg.sender] >= _value,\r\n            \"Error, allowance is not big enough for transfer\"\r\n        );\r\n        balanceOf[_from] -= _value;\r\n        balanceOf[_to] += _value;\r\n        allowance[_from][msg.sender] -= _value;\r\n        emit Transfer(_from, _to, _value);\r\n        return true;\r\n    }\r\n\r\n    // bank will be the minter\r\n    function passMinterRole(address dBank) public returns (bool) {\r\n        require(\r\n            msg.sender == minter,\r\n            \"Error, only owner can change minter role.\"\r\n        );\r\n        minter = dBank;\r\n        emit MinterChanged(msg.sender, dBank);\r\n        return true;\r\n    }\r\n\r\n    function mint(address account, uint256 amount) public {\r\n        //check if msg.sender has minter role\r\n        require(\r\n            msg.sender == minter,\r\n            \"Error, msg.sender does not have minter role.\"\r\n        );\r\n        require(account != address(0), \"ERC20: mint to the zero\");\r\n        totalSupply += amount;\r\n        balanceOf[account] += amount;\r\n        emit Transfer(address(0), account, amount);\r\n    }\r\n}\r\n",
  "sourcePath": "D:\\Web3-projects\\decentralized-bank\\src\\contracts\\DBToken.sol",
  "compiler": {
    "name": "solc",
    "version": "0.8.13+commit.abaa5c0e.Emscripten.clang"
  },
  "schemaVersion": "3.4.3",
  "updatedAt": "2022-04-19T19:03:40.305Z",
  "networkType": "ethereum",
  "devdoc": {
    "kind": "dev",
    "methods": {},
    "version": 1
  },
  "userdoc": {
    "kind": "user",
    "methods": {},
    "version": 1
  }
}