{
  "contractName": "DecentralizedBank",
  "abi": [
    {
      "inputs": [
        {
          "internalType": "contract DBToken",
          "name": "_dbToken",
          "type": "address"
        }
      ],
      "stateMutability": "nonpayable",
      "type": "constructor"
    },
    {
      "anonymous": false,
      "inputs": [
        {
          "indexed": true,
          "internalType": "address",
          "name": "user",
          "type": "address"
        },
        {
          "indexed": false,
          "internalType": "uint256",
          "name": "collateralEtherAmount",
          "type": "uint256"
        },
        {
          "indexed": false,
          "internalType": "uint256",
          "name": "borrowedTokenAmount",
          "type": "uint256"
        },
        {
          "indexed": false,
          "internalType": "uint256",
          "name": "timestamp",
          "type": "uint256"
        }
      ],
      "name": "Borrow",
      "type": "event"
    },
    {
      "anonymous": false,
      "inputs": [
        {
          "indexed": true,
          "internalType": "address",
          "name": "user",
          "type": "address"
        },
        {
          "indexed": false,
          "internalType": "uint256",
          "name": "etherAmount",
          "type": "uint256"
        },
        {
          "indexed": false,
          "internalType": "uint256",
          "name": "timeStart",
          "type": "uint256"
        },
        {
          "indexed": false,
          "internalType": "uint256",
          "name": "timestamp",
          "type": "uint256"
        }
      ],
      "name": "Deposit",
      "type": "event"
    },
    {
      "anonymous": false,
      "inputs": [
        {
          "indexed": true,
          "internalType": "address",
          "name": "user",
          "type": "address"
        },
        {
          "indexed": false,
          "internalType": "uint256",
          "name": "fee",
          "type": "uint256"
        },
        {
          "indexed": false,
          "internalType": "uint256",
          "name": "timestamp",
          "type": "uint256"
        }
      ],
      "name": "PayOff",
      "type": "event"
    },
    {
      "anonymous": false,
      "inputs": [
        {
          "indexed": true,
          "internalType": "address",
          "name": "user",
          "type": "address"
        },
        {
          "indexed": false,
          "internalType": "uint256",
          "name": "etherAmount",
          "type": "uint256"
        },
        {
          "indexed": false,
          "internalType": "uint256",
          "name": "depositTime",
          "type": "uint256"
        },
        {
          "indexed": false,
          "internalType": "uint256",
          "name": "interest",
          "type": "uint256"
        },
        {
          "indexed": false,
          "internalType": "uint256",
          "name": "timestamp",
          "type": "uint256"
        }
      ],
      "name": "Withdraw",
      "type": "event"
    },
    {
      "inputs": [
        {
          "internalType": "address",
          "name": "",
          "type": "address"
        }
      ],
      "name": "borrowedTokens",
      "outputs": [
        {
          "internalType": "uint256",
          "name": "",
          "type": "uint256"
        }
      ],
      "stateMutability": "view",
      "type": "function",
      "constant": true
    },
    {
      "inputs": [
        {
          "internalType": "address",
          "name": "",
          "type": "address"
        }
      ],
      "name": "collateralEther",
      "outputs": [
        {
          "internalType": "uint256",
          "name": "",
          "type": "uint256"
        }
      ],
      "stateMutability": "view",
      "type": "function",
      "constant": true
    },
    {
      "inputs": [
        {
          "internalType": "address",
          "name": "",
          "type": "address"
        }
      ],
      "name": "depositStart",
      "outputs": [
        {
          "internalType": "uint256",
          "name": "",
          "type": "uint256"
        }
      ],
      "stateMutability": "view",
      "type": "function",
      "constant": true
    },
    {
      "inputs": [
        {
          "internalType": "address",
          "name": "",
          "type": "address"
        }
      ],
      "name": "earnedTokens",
      "outputs": [
        {
          "internalType": "uint256",
          "name": "",
          "type": "uint256"
        }
      ],
      "stateMutability": "view",
      "type": "function",
      "constant": true
    },
    {
      "inputs": [
        {
          "internalType": "address",
          "name": "",
          "type": "address"
        }
      ],
      "name": "etherBalanceOf",
      "outputs": [
        {
          "internalType": "uint256",
          "name": "",
          "type": "uint256"
        }
      ],
      "stateMutability": "view",
      "type": "function",
      "constant": true
    },
    {
      "inputs": [
        {
          "internalType": "address",
          "name": "",
          "type": "address"
        }
      ],
      "name": "isBorrowed",
      "outputs": [
        {
          "internalType": "bool",
          "name": "",
          "type": "bool"
        }
      ],
      "stateMutability": "view",
      "type": "function",
      "constant": true
    },
    {
      "inputs": [
        {
          "internalType": "address",
          "name": "",
          "type": "address"
        }
      ],
      "name": "isDeposited",
      "outputs": [
        {
          "internalType": "bool",
          "name": "",
          "type": "bool"
        }
      ],
      "stateMutability": "view",
      "type": "function",
      "constant": true
    },
    {
      "inputs": [],
      "name": "deposit",
      "outputs": [],
      "stateMutability": "payable",
      "type": "function",
      "payable": true
    },
    {
      "inputs": [],
      "name": "withdraw",
      "outputs": [],
      "stateMutability": "nonpayable",
      "type": "function"
    },
    {
      "inputs": [],
      "name": "borrow",
      "outputs": [],
      "stateMutability": "payable",
      "type": "function",
      "payable": true
    },
    {
      "inputs": [],
      "name": "payOff",
      "outputs": [],
      "stateMutability": "nonpayable",
      "type": "function"
    },
    {
      "inputs": [],
      "name": "getLatestPrice",
      "outputs": [
        {
          "internalType": "int256",
          "name": "",
          "type": "int256"
        }
      ],
      "stateMutability": "view",
      "type": "function",
      "constant": true
    }
  ],
  "bytecode": "0x608060405234801561001057600080fd5b50604051610c80380380610c8083398101604081905261002f91610071565b600080546001600160a01b039092166001600160a01b031992831617905560018054909116738a753747a1fa494ec906ce90e9f37563a8af630e1790556100a1565b60006020828403121561008357600080fd5b81516001600160a01b038116811461009a57600080fd5b9392505050565b610bd0806100b06000396000f3fe6080604052600436106100a75760003560e01c80638e15f473116100645780638e15f473146101b2578063cdebd932146101c7578063ceac55df146101f7578063d0e30db014610224578063e68d35691461022c578063ff87930a1461023457600080fd5b8063179fc99f146100ac5780633ccfd60b146100ec5780633e814c04146101035780633fac68d514610130578063737320241461014557806375a40d2a14610185575b600080fd5b3480156100b857600080fd5b506100d96100c7366004610a53565b60026020526000908152604090205481565b6040519081526020015b60405180910390f35b3480156100f857600080fd5b50610101610261565b005b34801561010f57600080fd5b506100d961011e366004610a53565b60076020526000908152604090205481565b34801561013c57600080fd5b50610101610467565b34801561015157600080fd5b50610175610160366004610a53565b60046020526000908152604090205460ff1681565b60405190151581526020016100e3565b34801561019157600080fd5b506100d96101a0366004610a53565b60056020526000908152604090205481565b3480156101be57600080fd5b506100d961068e565b3480156101d357600080fd5b506101756101e2366004610a53565b60066020526000908152604090205460ff1681565b34801561020357600080fd5b506100d9610212366004610a53565b60086020526000908152604090205481565b610101610713565b610101610880565b34801561024057600080fd5b506100d961024f366004610a53565b60036020526000908152604090205481565b3360009081526004602052604090205460ff1615156001146102ca5760405162461bcd60e51b815260206004820152601a60248201527f4572726f722c206e6f2070726576696f7573206465706f73697400000000000060448201526064015b60405180910390fd5b3360009081526002602090815260408083205460039092528220549091906102f29042610a99565b336000908152600260205260408120549192509061031890662386f26fc1000090610ab0565b610326906301e33731610ad2565b905060006103348383610ad2565b604051909150339085156108fc029086906000818181858888f19350505050158015610364573d6000803e3d6000fd5b506000546040516340c10f1960e01b8152336004820152602481018390526001600160a01b03909116906340c10f1990604401600060405180830381600087803b1580156103b157600080fd5b505af11580156103c5573d6000803e3d6000fd5b505033600090815260076020526040812080548594509092506103e9908490610af1565b9091555050336000818152600360209081526040808320839055600282528083208390556004825291829020805460ff1916905581518781529081018690529081018390524260608201527fe08737ac48a1dab4b1a46c7dc9398bd5bfc6d7ad6fabb7cd8caa254de14def359060800160405180910390a250505050565b3360009081526006602052604090205460ff1615156001146104c45760405162461bcd60e51b81526020600482015260166024820152754572726f722c206c6f616e206e6f742061637469766560501b60448201526064016102c1565b600080543380835260056020526040909220546001600160a01b03909116916323b872dd9130906104f790600290610ab0565b6040516001600160e01b031960e086901b1681526001600160a01b03938416600482015292909116602483015260448201526064016020604051808303816000875af115801561054b573d6000803e3d6000fd5b505050506040513d601f19601f8201168201806040525081019061056f9190610b09565b6105bb5760405162461bcd60e51b815260206004820152601b60248201527f4572726f722c2063616e2774207265636569766520746f6b656e73000000000060448201526064016102c1565b336000908152600560205260408120546105d790600a90610ab0565b33600081815260056020526040902054919250906108fc906105fa908490610a99565b6040518115909202916000818181858888f19350505050158015610622573d6000803e3d6000fd5b50336000818152600560209081526040808320839055600882528083208390556006825291829020805460ff19169055815184815242918101919091527fa95bb85da2632d60fb02198fcd10528d7b465766357496a008489a478dd7371091015b60405180910390a250565b600080600160009054906101000a90046001600160a01b03166001600160a01b031663feaf968c6040518163ffffffff1660e01b815260040160a060405180830381865afa1580156106e4573d6000803e3d6000fd5b505050506040513d601f19601f820116820180604052508101906107089190610b4a565b509195945050505050565b3360009081526004602052604090205460ff16156107735760405162461bcd60e51b815260206004820152601c60248201527f4572726f722c206465706f73697420616c65616479206163746976650000000060448201526064016102c1565b662386f26fc100003410156107d55760405162461bcd60e51b815260206004820152602260248201527f4572726f722c206465706f736974206d757374206265203e3d20302e303120456044820152610a8960f31b60648201526084016102c1565b336000908152600260205260409020546107f0903490610af1565b33600090815260026020908152604080832093909355600390522054610817904290610af1565b336000818152600360209081526040808320949094556004815290839020805460ff1916600117905582513481524291810182905292830152907f36af321ec8d3c75236829c5317affd40ddb308863a1236d2d277a4025cccee1e9060600160405180910390a2565b662386f26fc100003410156108e55760405162461bcd60e51b815260206004820152602560248201527f4572726f722c20636f6c6c61746572616c206d757374206265203e3d20302e30604482015264062408aa8960db1b60648201526084016102c1565b3360009081526006602052604090205460ff16156109455760405162461bcd60e51b815260206004820152601960248201527f4572726f722c206c6f616e20616c72656164792074616b656e0000000000000060448201526064016102c1565b33600090815260056020526040902054610960903490610af1565b3360009081526005602052604081208290559061097f90600290610ab0565b6000546040516340c10f1960e01b8152336004820152602481018390529192506001600160a01b0316906340c10f1990604401600060405180830381600087803b1580156109cc57600080fd5b505af11580156109e0573d6000803e3d6000fd5b505033600081815260086020908152604080832087905560068252808320805460ff19166001179055600582529182902054825190815290810186905242918101919091529092507f13ed6866d4e1ee6da46f845c46d7e54120883d75c5ea9a2dacc1c4ca8984ab809150606001610683565b600060208284031215610a6557600080fd5b81356001600160a01b0381168114610a7c57600080fd5b9392505050565b634e487b7160e01b600052601160045260246000fd5b600082821015610aab57610aab610a83565b500390565b600082610acd57634e487b7160e01b600052601260045260246000fd5b500490565b6000816000190483118215151615610aec57610aec610a83565b500290565b60008219821115610b0457610b04610a83565b500190565b600060208284031215610b1b57600080fd5b81518015158114610a7c57600080fd5b805169ffffffffffffffffffff81168114610b4557600080fd5b919050565b600080600080600060a08688031215610b6257600080fd5b610b6b86610b2b565b9450602086015193506040860151925060608601519150610b8e60808701610b2b565b9050929550929590935056fea264697066735822122097e3f8f75411e38f1f3d4bfb9560904bfa7628199aa38871a09996e8c281830f64736f6c634300080d0033",
  "immutableReferences": {},
  "source": "// SPDX-License-Identifier: MIT\r\npragma solidity ^0.8.13;\r\n\r\nimport \"./DBToken.sol\";\r\nimport \"@chainlink/contracts/src/v0.8/interfaces/AggregatorV3Interface.sol\";\r\n\r\ncontract DecentralizedBank {\r\n    DBToken private dbToken;\r\n    AggregatorV3Interface internal priceFeed;\r\n\r\n    mapping(address => uint256) public etherBalanceOf;\r\n    mapping(address => uint256) public depositStart;\r\n    mapping(address => bool) public isDeposited;\r\n    mapping(address => uint256) public collateralEther;\r\n    mapping(address => bool) public isBorrowed;\r\n\r\n    mapping(address => uint256) public earnedTokens;\r\n    mapping(address => uint256) public borrowedTokens;\r\n\r\n    event Deposit(\r\n        address indexed user,\r\n        uint256 etherAmount,\r\n        uint256 timeStart,\r\n        uint256 timestamp\r\n    );\r\n    event Withdraw(\r\n        address indexed user,\r\n        uint256 etherAmount,\r\n        uint256 depositTime,\r\n        uint256 interest,\r\n        uint256 timestamp\r\n    );\r\n    event Borrow(\r\n        address indexed user,\r\n        uint256 collateralEtherAmount,\r\n        uint256 borrowedTokenAmount,\r\n        uint256 timestamp\r\n    );\r\n    event PayOff(address indexed user, uint256 fee, uint256 timestamp);\r\n\r\n    // argument: deployed token contract\r\n    constructor(DBToken _dbToken) {\r\n        dbToken = _dbToken;\r\n        priceFeed = AggregatorV3Interface(\r\n            0x8A753747A1Fa494EC906cE90E9f37563A8AF630e\r\n        );\r\n    }\r\n\r\n    /**\r\n     * msg.sender must not have an active deposit\r\n     * min value to deposit is 0.01 ETH\r\n     */\r\n    function deposit() public payable {\r\n        require(\r\n            isDeposited[msg.sender] == false,\r\n            \"Error, deposit aleady active\"\r\n        );\r\n        require(msg.value >= 1e16, \"Error, deposit must be >= 0.01 ETH\");\r\n\r\n        etherBalanceOf[msg.sender] = etherBalanceOf[msg.sender] + msg.value;\r\n        depositStart[msg.sender] = depositStart[msg.sender] + block.timestamp;\r\n        isDeposited[msg.sender] = true;\r\n        emit Deposit(msg.sender, msg.value, block.timestamp, block.timestamp);\r\n    }\r\n\r\n    /**\r\n     * msg.sender must have a previous deposit\r\n     * interest (10% APY) per second for minimum deposit (0.01 ETH) is 31668017\r\n     * 10% of 0.01 ETH = 1e15\r\n     * number of seconds in a year = 31577600\r\n     * interest = 1e15 / 31577600 = 31668017\r\n     * how much higher interest will be based on deposits: etherBalanceOf[msg.sender]/1e16\r\n     * for minimum deposit etherBalanceOf[msg.sender]/1e16 = 1 (31668017/s)\r\n     * for deposit 0.02 ETH, etherBalanceOf[msg.sender]/1e16 = 2 ((2*31668017)/s)\r\n     */\r\n    function withdraw() public {\r\n        require(isDeposited[msg.sender] == true, \"Error, no previous deposit\");\r\n\r\n        uint256 userBalance = etherBalanceOf[msg.sender];\r\n        uint256 depositTime = block.timestamp - depositStart[msg.sender];\r\n        uint256 interestPerSecond = 31668017 *\r\n            (etherBalanceOf[msg.sender] / 1e16);\r\n        uint256 interest = interestPerSecond * depositTime;\r\n\r\n        // send deposited eth to user\r\n        payable(msg.sender).transfer(userBalance);\r\n        // interest in tokens to user\r\n        dbToken.mint(msg.sender, interest);\r\n        earnedTokens[msg.sender] += interest;\r\n\r\n        depositStart[msg.sender] = 0;\r\n        etherBalanceOf[msg.sender] = 0;\r\n        isDeposited[msg.sender] = false;\r\n\r\n        emit Withdraw(\r\n            msg.sender,\r\n            userBalance,\r\n            depositTime,\r\n            interest,\r\n            block.timestamp\r\n        );\r\n    }\r\n\r\n    /**\r\n     * collateral must be >= 0.01 ETH\r\n     * user must not have an active loan\r\n     * Ether collateral will be locked until user pays off the loan\r\n     * user gets 50% of collateral in tokens (that is what the user borrows)\r\n     */\r\n    function borrow() public payable {\r\n        require(msg.value >= 1e16, \"Error, collateral must be >= 0.01 ETH\");\r\n        require(isBorrowed[msg.sender] == false, \"Error, loan already taken\");\r\n\r\n        collateralEther[msg.sender] = collateralEther[msg.sender] + msg.value;\r\n        uint256 tokensToMint = collateralEther[msg.sender] / 2;\r\n        dbToken.mint(msg.sender, tokensToMint);\r\n        borrowedTokens[msg.sender] = tokensToMint;\r\n        isBorrowed[msg.sender] = true;\r\n\r\n        emit Borrow(\r\n            msg.sender,\r\n            collateralEther[msg.sender],\r\n            tokensToMint,\r\n            block.timestamp\r\n        );\r\n    }\r\n\r\n    /**\r\n     * user must have an active loan\r\n     * tokens are transfered from user back to the contract\r\n     * fee is 10% of collateral\r\n     */\r\n    function payOff() public {\r\n        require(isBorrowed[msg.sender] == true, \"Error, loan not active\");\r\n        require(\r\n            dbToken.transferFrom(\r\n                msg.sender,\r\n                address(this),\r\n                collateralEther[msg.sender] / 2\r\n            ),\r\n            \"Error, can't receive tokens\"\r\n        ); //must approve dBank first\r\n\r\n        uint256 fee = collateralEther[msg.sender] / 10;\r\n        payable(msg.sender).transfer(collateralEther[msg.sender] - fee);\r\n        collateralEther[msg.sender] = 0;\r\n        borrowedTokens[msg.sender] = 0;\r\n        isBorrowed[msg.sender] = false;\r\n\r\n        emit PayOff(msg.sender, fee, block.timestamp);\r\n    }\r\n\r\n    function getLatestPrice() public view returns (int256) {\r\n        (, int256 price, , , ) = priceFeed.latestRoundData();\r\n        return price;\r\n    }\r\n}\r\n",
  "sourcePath": "D:\\Web3-projects\\decentralized-bank\\src\\contracts\\DecentralizedBank.sol",
  "compiler": {
    "name": "solc",
    "version": "0.8.13+commit.abaa5c0e.Emscripten.clang"
  },
  "schemaVersion": "3.4.3",
  "updatedAt": "2022-04-24T15:51:57.112Z",
  "networkType": "ethereum",
  "devdoc": {
    "kind": "dev",
    "methods": {},
    "version": 1
  },
  "userdoc": {
    "kind": "user",
    "methods": {
      "borrow()": {
        "notice": "collateral must be >= 0.01 ETH user must not have an active loan Ether collateral will be locked until user pays off the loan user gets 50% of collateral in tokens (that is what the user borrows)"
      },
      "deposit()": {
        "notice": "msg.sender must not have an active deposit min value to deposit is 0.01 ETH"
      },
      "payOff()": {
        "notice": "user must have an active loan tokens are transfered from user back to the contract fee is 10% of collateral"
      },
      "withdraw()": {
        "notice": "msg.sender must have a previous deposit interest (10% APY) per second for minimum deposit (0.01 ETH) is 31668017 10% of 0.01 ETH = 1e15 number of seconds in a year = 31577600 interest = 1e15 / 31577600 = 31668017 how much higher interest will be based on deposits: etherBalanceOf[msg.sender]/1e16 for minimum deposit etherBalanceOf[msg.sender]/1e16 = 1 (31668017/s) for deposit 0.02 ETH, etherBalanceOf[msg.sender]/1e16 = 2 ((2*31668017)/s)"
      }
    },
    "version": 1
  }
}