{
  "contractName": "DecentralizedBank",
  "abi": [
    {
      "inputs": [
        {
          "internalType": "contract DBToken",
          "name": "_dbToken",
          "type": "address"
        }
      ],
      "stateMutability": "nonpayable",
      "type": "constructor"
    },
    {
      "anonymous": false,
      "inputs": [
        {
          "indexed": true,
          "internalType": "address",
          "name": "user",
          "type": "address"
        },
        {
          "indexed": false,
          "internalType": "uint256",
          "name": "collateralEtherAmount",
          "type": "uint256"
        },
        {
          "indexed": false,
          "internalType": "uint256",
          "name": "borrowedTokenAmount",
          "type": "uint256"
        },
        {
          "indexed": false,
          "internalType": "uint256",
          "name": "timestamp",
          "type": "uint256"
        }
      ],
      "name": "Borrow",
      "type": "event"
    },
    {
      "anonymous": false,
      "inputs": [
        {
          "indexed": true,
          "internalType": "address",
          "name": "user",
          "type": "address"
        },
        {
          "indexed": false,
          "internalType": "uint256",
          "name": "etherAmount",
          "type": "uint256"
        },
        {
          "indexed": false,
          "internalType": "uint256",
          "name": "timeStart",
          "type": "uint256"
        },
        {
          "indexed": false,
          "internalType": "uint256",
          "name": "timestamp",
          "type": "uint256"
        }
      ],
      "name": "Deposit",
      "type": "event"
    },
    {
      "anonymous": false,
      "inputs": [
        {
          "indexed": true,
          "internalType": "address",
          "name": "user",
          "type": "address"
        },
        {
          "indexed": false,
          "internalType": "uint256",
          "name": "fee",
          "type": "uint256"
        },
        {
          "indexed": false,
          "internalType": "uint256",
          "name": "timestamp",
          "type": "uint256"
        }
      ],
      "name": "PayOff",
      "type": "event"
    },
    {
      "anonymous": false,
      "inputs": [
        {
          "indexed": true,
          "internalType": "address",
          "name": "user",
          "type": "address"
        },
        {
          "indexed": false,
          "internalType": "uint256",
          "name": "etherAmount",
          "type": "uint256"
        },
        {
          "indexed": false,
          "internalType": "uint256",
          "name": "depositTime",
          "type": "uint256"
        },
        {
          "indexed": false,
          "internalType": "uint256",
          "name": "interest",
          "type": "uint256"
        },
        {
          "indexed": false,
          "internalType": "uint256",
          "name": "timestamp",
          "type": "uint256"
        }
      ],
      "name": "Withdraw",
      "type": "event"
    },
    {
      "inputs": [
        {
          "internalType": "address",
          "name": "",
          "type": "address"
        }
      ],
      "name": "borrowedTokens",
      "outputs": [
        {
          "internalType": "uint256",
          "name": "",
          "type": "uint256"
        }
      ],
      "stateMutability": "view",
      "type": "function",
      "constant": true
    },
    {
      "inputs": [
        {
          "internalType": "address",
          "name": "",
          "type": "address"
        }
      ],
      "name": "collateralEther",
      "outputs": [
        {
          "internalType": "uint256",
          "name": "",
          "type": "uint256"
        }
      ],
      "stateMutability": "view",
      "type": "function",
      "constant": true
    },
    {
      "inputs": [
        {
          "internalType": "address",
          "name": "",
          "type": "address"
        }
      ],
      "name": "depositStart",
      "outputs": [
        {
          "internalType": "uint256",
          "name": "",
          "type": "uint256"
        }
      ],
      "stateMutability": "view",
      "type": "function",
      "constant": true
    },
    {
      "inputs": [
        {
          "internalType": "address",
          "name": "",
          "type": "address"
        }
      ],
      "name": "earnedTokens",
      "outputs": [
        {
          "internalType": "uint256",
          "name": "",
          "type": "uint256"
        }
      ],
      "stateMutability": "view",
      "type": "function",
      "constant": true
    },
    {
      "inputs": [
        {
          "internalType": "address",
          "name": "",
          "type": "address"
        }
      ],
      "name": "etherBalanceOf",
      "outputs": [
        {
          "internalType": "uint256",
          "name": "",
          "type": "uint256"
        }
      ],
      "stateMutability": "view",
      "type": "function",
      "constant": true
    },
    {
      "inputs": [
        {
          "internalType": "address",
          "name": "",
          "type": "address"
        }
      ],
      "name": "isBorrowed",
      "outputs": [
        {
          "internalType": "bool",
          "name": "",
          "type": "bool"
        }
      ],
      "stateMutability": "view",
      "type": "function",
      "constant": true
    },
    {
      "inputs": [
        {
          "internalType": "address",
          "name": "",
          "type": "address"
        }
      ],
      "name": "isDeposited",
      "outputs": [
        {
          "internalType": "bool",
          "name": "",
          "type": "bool"
        }
      ],
      "stateMutability": "view",
      "type": "function",
      "constant": true
    },
    {
      "inputs": [],
      "name": "deposit",
      "outputs": [],
      "stateMutability": "payable",
      "type": "function",
      "payable": true
    },
    {
      "inputs": [],
      "name": "withdraw",
      "outputs": [],
      "stateMutability": "nonpayable",
      "type": "function"
    },
    {
      "inputs": [],
      "name": "borrow",
      "outputs": [],
      "stateMutability": "payable",
      "type": "function",
      "payable": true
    },
    {
      "inputs": [],
      "name": "payOff",
      "outputs": [],
      "stateMutability": "nonpayable",
      "type": "function"
    }
  ],
  "bytecode": "0x608060405234801561001057600080fd5b50604051610a51380380610a518339818101604052602081101561003357600080fd5b5051600080546001600160a01b039092166001600160a01b03199092169190911790556109ec806100656000396000f3fe60806040526004361061009c5760003560e01c806375a40d2a1161006457806375a40d2a1461018c578063cdebd932146101bf578063ceac55df146101f2578063d0e30db014610225578063e68d35691461022d578063ff87930a146102355761009c565b8063179fc99f146100a15780633ccfd60b146100e65780633e814c04146100fd5780633fac68d5146101305780637373202414610145575b600080fd5b3480156100ad57600080fd5b506100d4600480360360208110156100c457600080fd5b50356001600160a01b0316610268565b60408051918252519081900360200190f35b3480156100f257600080fd5b506100fb61027a565b005b34801561010957600080fd5b506100d46004803603602081101561012057600080fd5b50356001600160a01b0316610439565b34801561013c57600080fd5b506100fb61044b565b34801561015157600080fd5b506101786004803603602081101561016857600080fd5b50356001600160a01b0316610647565b604080519115158252519081900360200190f35b34801561019857600080fd5b506100d4600480360360208110156101af57600080fd5b50356001600160a01b031661065c565b3480156101cb57600080fd5b50610178600480360360208110156101e257600080fd5b50356001600160a01b031661066e565b3480156101fe57600080fd5b506100d46004803603602081101561021557600080fd5b50356001600160a01b0316610683565b6100fb610695565b6100fb6107bf565b34801561024157600080fd5b506100d46004803603602081101561025857600080fd5b50356001600160a01b031661095d565b60016020526000908152604090205481565b3360009081526003602052604090205460ff1615156001146102e3576040805162461bcd60e51b815260206004820152601a60248201527f4572726f722c206e6f2070726576696f7573206465706f736974000000000000604482015290519081900360640190fd5b33600081815260016020818152604080842054600283528185205493909252519093429290920392662386f26fc1000085046301e3373181810294918602029290916108fc871502918791818181858888f1935050505015801561034b573d6000803e3d6000fd5b5060008054604080516340c10f1960e01b81523360048201526024810185905290516001600160a01b03909216926340c10f199260448084019382900301818387803b15801561039a57600080fd5b505af11580156103ae573d6000803e3d6000fd5b505033600081815260066020908152604080832080548801905560028252808320839055600182528083208390556003825291829020805460ff19169055815189815290810188905280820186905242606082015290519193507fe08737ac48a1dab4b1a46c7dc9398bd5bfc6d7ad6fabb7cd8caa254de14def35925081900360800190a250505050565b60066020526000908152604090205481565b3360009081526005602052604090205460ff1615156001146104ad576040805162461bcd60e51b81526020600482015260166024820152754572726f722c206c6f616e206e6f742061637469766560501b604482015290519081900360640190fd5b60008054338083526004602081815260408086205481516323b872dd60e01b8152938401949094523060248401526002909304604483015291516001600160a01b03909316936323b872dd93606480840194939192918390030190829087803b15801561051957600080fd5b505af115801561052d573d6000803e3d6000fd5b505050506040513d602081101561054357600080fd5b5051610596576040805162461bcd60e51b815260206004820152601b60248201527f4572726f722c2063616e2774207265636569766520746f6b656e730000000000604482015290519081900360640190fd5b33600081815260046020526040808220549051600a820493929184900380156108fc0292909190818181858888f193505050501580156105da573d6000803e3d6000fd5b50336000818152600460209081526040808320839055600782528083208390556005825291829020805460ff191690558151848152429181019190915281517fa95bb85da2632d60fb02198fcd10528d7b465766357496a008489a478dd73710929181900390910190a250565b60036020526000908152604090205460ff1681565b60046020526000908152604090205481565b60056020526000908152604090205460ff1681565b60076020526000908152604090205481565b3360009081526003602052604090205460ff16156106fa576040805162461bcd60e51b815260206004820152601c60248201527f4572726f722c206465706f73697420616c656164792061637469766500000000604482015290519081900360640190fd5b662386f26fc100003410156107405760405162461bcd60e51b81526004018080602001828103825260228152602001806109706022913960400191505060405180910390fd5b336000818152600160208181526040808420805434908101909155600283528185208054429081019091556003845294829020805460ff191690941790935580519283529082018390528181019290925290517f36af321ec8d3c75236829c5317affd40ddb308863a1236d2d277a4025cccee1e9181900360600190a2565b662386f26fc100003410156108055760405162461bcd60e51b81526004018080602001828103825260258152602001806109926025913960400191505060405180910390fd5b3360009081526005602052604090205460ff161561086a576040805162461bcd60e51b815260206004820152601960248201527f4572726f722c206c6f616e20616c72656164792074616b656e00000000000000604482015290519081900360640190fd5b3360008181526004602081905260408083208054340190819055835482516340c10f1960e01b8152938401959095526002900460248301819052905190936001600160a01b0316926340c10f19926044808201939182900301818387803b1580156108d457600080fd5b505af11580156108e8573d6000803e3d6000fd5b505033600081815260076020908152604080832087905560058252808320805460ff191660011790556004825291829020548251908152908101869052428183015290519193507f13ed6866d4e1ee6da46f845c46d7e54120883d75c5ea9a2dacc1c4ca8984ab80925081900360600190a250565b6002602052600090815260409020548156fe4572726f722c206465706f736974206d757374206265203e3d20302e3031204554484572726f722c20636f6c6c61746572616c206d757374206265203e3d20302e303120455448a26469706673582212205c00676bca19bb5668c134b33be676a45c68257cc21ccc8691c63d15a75ed0f564736f6c63430007060033",
  "immutableReferences": {},
  "source": "// SPDX-License-Identifier: MIT\r\npragma solidity >=0.6.0 <0.8.0;\r\n\r\nimport \"./DBToken.sol\";\r\n\r\ncontract DecentralizedBank {\r\n\r\n\tDBToken private dbToken;\r\n\r\n\tmapping(address => uint) public etherBalanceOf;\r\n\tmapping(address => uint) public depositStart;\r\n\tmapping(address => bool) public isDeposited;\r\n\tmapping(address => uint) public collateralEther;\r\n\tmapping(address => bool) public isBorrowed;\r\n\r\n\tmapping(address => uint) public earnedTokens;\r\n\tmapping(address => uint) public borrowedTokens;\r\n\r\n\tevent Deposit(address indexed user, uint etherAmount, uint timeStart, uint timestamp);\r\n\tevent Withdraw(address indexed user, uint etherAmount, uint depositTime, uint interest,  uint timestamp);\r\n\tevent Borrow(address indexed user, uint collateralEtherAmount, uint borrowedTokenAmount, uint timestamp);\r\n\tevent PayOff(address indexed user, uint fee, uint timestamp);\r\n\r\n\t// argument: deployed token contract\r\n\tconstructor(DBToken _dbToken) {\r\n\t\tdbToken = _dbToken;\r\n\t}\r\n\r\n\t/**\r\n\t * msg.sender must not have an active deposit\r\n\t * min value to deposit is 0.01 ETH\r\n\t */\r\n\tfunction deposit() payable public {\r\n\t\trequire(isDeposited[msg.sender] == false, 'Error, deposit aleady active');\r\n\t\trequire(msg.value >= 1e16, 'Error, deposit must be >= 0.01 ETH');\r\n\r\n\t\tetherBalanceOf[msg.sender] = etherBalanceOf[msg.sender] + msg.value;\r\n\t\tdepositStart[msg.sender] = depositStart[msg.sender] + block.timestamp;\r\n\t\tisDeposited[msg.sender] = true;\r\n\t\temit Deposit(msg.sender, msg.value, block.timestamp, block.timestamp);\r\n\t}\r\n\r\n\t/**\r\n\t * msg.sender must have a previous deposit\r\n\t * interest (10% APY) per second for minimum deposit (0.01 ETH) is 31668017\r\n\t * 10% of 0.01 ETH = 1e15\r\n\t * number of seconds in a year = 31577600\r\n\t * interest = 1e15 / 31577600 = 31668017\r\n\t * how much higher interest will be based on deposits: etherBalanceOf[msg.sender]/1e16\r\n\t * for minimum deposit etherBalanceOf[msg.sender]/1e16 = 1 (31668017/s)\r\n\t * for deposit 0.02 ETH, etherBalanceOf[msg.sender]/1e16 = 2 ((2*31668017)/s)\r\n\t */\r\n\tfunction withdraw() public {\r\n\t\trequire(isDeposited[msg.sender] == true, 'Error, no previous deposit');\r\n\r\n\t\tuint userBalance = etherBalanceOf[msg.sender];\r\n\t\tuint depositTime = block.timestamp - depositStart[msg.sender];\r\n\t\tuint interestPerSecond = 31668017 * (etherBalanceOf[msg.sender] / 1e16);\r\n\t\tuint interest = interestPerSecond * depositTime;\r\n\r\n\t\t// send deposited eth to user\r\n\t\tmsg.sender.transfer(userBalance);\r\n\t\t// interest in tokens to user\r\n\t\tdbToken.mint(msg.sender, interest);\r\n\t\tearnedTokens[msg.sender] += interest;\r\n\r\n\t\tdepositStart[msg.sender] = 0;\r\n\t\tetherBalanceOf[msg.sender] = 0;\r\n\t\tisDeposited[msg.sender] = false;\r\n\r\n\t\temit Withdraw(msg.sender, userBalance, depositTime, interest, block.timestamp);\r\n\r\n\t}\r\n\r\n\t/**\r\n\t * collateral must be >= 0.01 ETH\r\n\t * user must not have an active loan\r\n\t * Ether collateral will be locked until user pays off the loan\r\n\t * user gets 50% of collateral in tokens (that is what the user borrows)\r\n\t */\r\n\tfunction borrow() payable public {\r\n\t\trequire(msg.value >= 1e16, 'Error, collateral must be >= 0.01 ETH');\r\n\t\trequire(isBorrowed[msg.sender] == false, 'Error, loan already taken');\r\n\r\n\t\tcollateralEther[msg.sender] = collateralEther[msg.sender] + msg.value;\r\n\t\tuint tokensToMint = collateralEther[msg.sender] / 2;\r\n\t\tdbToken.mint(msg.sender, tokensToMint);\r\n\t\tborrowedTokens[msg.sender] = tokensToMint;\r\n\t\tisBorrowed[msg.sender] = true;\r\n\r\n\t\temit Borrow(msg.sender, collateralEther[msg.sender], tokensToMint, block.timestamp);\r\n\r\n\t}\r\n\r\n\t/**\r\n\t * user must have an active loan\r\n\t * tokens are transfered from user back to the contract\r\n\t * fee is 10% of collateral\r\n\t */\r\n\tfunction payOff() public {\r\n\t\trequire(isBorrowed[msg.sender] == true, 'Error, loan not active');\r\n\t\trequire(dbToken.transferFrom(msg.sender, address(this), collateralEther[msg.sender]/2), \"Error, can't receive tokens\"); //must approve dBank first\r\n\r\n\t\tuint fee = collateralEther[msg.sender] / 10;\r\n\t\tmsg.sender.transfer(collateralEther[msg.sender] - fee);\r\n\t\tcollateralEther[msg.sender] = 0;\r\n\t\tborrowedTokens[msg.sender] = 0;\r\n\t\tisBorrowed[msg.sender] = false;\r\n\r\n\t\temit PayOff(msg.sender, fee, block.timestamp);\r\n\t}\r\n}",
  "sourcePath": "D:\\Master\\MasterRad\\decentralized-bank\\src\\contracts\\DecentralizedBank.sol",
  "compiler": {
    "name": "solc",
    "version": "0.7.6+commit.7338295f.Emscripten.clang"
  },
  "schemaVersion": "3.4.3",
  "updatedAt": "2022-01-22T19:41:10.728Z",
  "networkType": "ethereum",
  "devdoc": {
    "kind": "dev",
    "methods": {},
    "version": 1
  },
  "userdoc": {
    "kind": "user",
    "methods": {
      "borrow()": {
        "notice": "collateral must be >= 0.01 ETH user must not have an active loan Ether collateral will be locked until user pays off the loan user gets 50% of collateral in tokens (that is what the user borrows)"
      },
      "deposit()": {
        "notice": "msg.sender must not have an active deposit min value to deposit is 0.01 ETH"
      },
      "payOff()": {
        "notice": "user must have an active loan tokens are transfered from user back to the contract fee is 10% of collateral"
      },
      "withdraw()": {
        "notice": "msg.sender must have a previous deposit interest (10% APY) per second for minimum deposit (0.01 ETH) is 31668017 10% of 0.01 ETH = 1e15 number of seconds in a year = 31577600 interest = 1e15 / 31577600 = 31668017 how much higher interest will be based on deposits: etherBalanceOf[msg.sender]/1e16 for minimum deposit etherBalanceOf[msg.sender]/1e16 = 1 (31668017/s) for deposit 0.02 ETH, etherBalanceOf[msg.sender]/1e16 = 2 ((2*31668017)/s)"
      }
    },
    "version": 1
  }
}